{
  "contractName": "carhistory",
  "abi": [
    {
      "constant": true,
      "inputs": [
        {
          "name": "",
          "type": "bytes32"
        }
      ],
      "name": "carHistoryStructs",
      "outputs": [
        {
          "name": "mileage",
          "type": "uint256"
        },
        {
          "name": "part1",
          "type": "bytes32"
        },
        {
          "name": "part2",
          "type": "bytes32"
        },
        {
          "name": "part3",
          "type": "bytes32"
        },
        {
          "name": "sender",
          "type": "address"
        }
      ],
      "payable": false,
      "stateMutability": "view",
      "type": "function"
    },
    {
      "constant": true,
      "inputs": [],
      "name": "getCarRegNoArray",
      "outputs": [
        {
          "name": "",
          "type": "bytes32[]"
        }
      ],
      "payable": false,
      "stateMutability": "view",
      "type": "function"
    },
    {
      "constant": false,
      "inputs": [
        {
          "name": "carRegNo",
          "type": "bytes32"
        },
        {
          "name": "mileage",
          "type": "uint256"
        },
        {
          "name": "part1",
          "type": "bytes32"
        },
        {
          "name": "part2",
          "type": "bytes32"
        },
        {
          "name": "part3",
          "type": "bytes32"
        }
      ],
      "name": "setCarHistoryLog",
      "outputs": [
        {
          "name": "success",
          "type": "bool"
        }
      ],
      "payable": false,
      "stateMutability": "nonpayable",
      "type": "function"
    },
    {
      "constant": true,
      "inputs": [
        {
          "name": "carRegNo",
          "type": "bytes32"
        }
      ],
      "name": "getCarHistoryLog",
      "outputs": [
        {
          "name": "",
          "type": "uint256"
        },
        {
          "name": "",
          "type": "bytes32"
        },
        {
          "name": "",
          "type": "bytes32"
        },
        {
          "name": "",
          "type": "bytes32"
        },
        {
          "name": "",
          "type": "address"
        }
      ],
      "payable": false,
      "stateMutability": "view",
      "type": "function"
    }
  ],
  "bytecode": "0x608060405234801561001057600080fd5b5061057a806100206000396000f300608060405260043610610062576000357c0100000000000000000000000000000000000000000000000000000000900463ffffffff168063208541c11461006757806350bf4d30146100e4578063be4f824a14610150578063e1f637f3146101f5575b600080fd5b34801561007357600080fd5b506100ca60048036038101908080356000191690602001909291908035906020019092919080356000191690602001909291908035600019169060200190929190803560001916906020019092919050505061029a565b604051808215151515815260200191505060405180910390f35b3480156100f057600080fd5b506100f96103cb565b6040518080602001828103825283818151815260200191508051906020019060200280838360005b8381101561013c578082015181840152602081019050610121565b505050509050019250505060405180910390f35b34801561015c57600080fd5b5061017f6004803603810190808035600019169060200190929190505050610427565b604051808681526020018560001916600019168152602001846000191660001916815260200183600019166000191681526020018273ffffffffffffffffffffffffffffffffffffffff1673ffffffffffffffffffffffffffffffffffffffff1681526020019550505050505060405180910390f35b34801561020157600080fd5b5061022460048036038101908080356000191690602001909291905050506104f8565b604051808681526020018560001916600019168152602001846000191660001916815260200183600019166000191681526020018273ffffffffffffffffffffffffffffffffffffffff1673ffffffffffffffffffffffffffffffffffffffff1681526020019550505050505060405180910390f35b60008460008088600019166000191681526020019081526020016000206000018190555083600080886000191660001916815260200190815260200160002060010181600019169055508260008088600019166000191681526020019081526020016000206002018160001916905550816000808860001916600019168152602001908152602001600020600301816000191690555033600080886000191660001916815260200190815260200160002060040160006101000a81548173ffffffffffffffffffffffffffffffffffffffff021916908373ffffffffffffffffffffffffffffffffffffffff16021790555060018690806001815401808255809150509060018203906000526020600020016000909192909190915090600019169055506001905095945050505050565b6060600180548060200260200160405190810160405280929190818152602001828054801561041d57602002820191906000526020600020905b81546000191681526020019060010190808311610405575b5050505050905090565b60008060008060008060008760001916600019168152602001908152602001600020600001546000808860001916600019168152602001908152602001600020600101546000808960001916600019168152602001908152602001600020600201546000808a60001916600019168152602001908152602001600020600301546000808b6000191660001916815260200190815260200160002060040160009054906101000a900473ffffffffffffffffffffffffffffffffffffffff169450945094509450945091939590929450565b60006020528060005260406000206000915090508060000154908060010154908060020154908060030154908060040160009054906101000a900473ffffffffffffffffffffffffffffffffffffffff169050855600a165627a7a723058200d51929cff8930547deee3d50025be8950fe420813f542a7f0829d679cf2379e0029",
  "source": "pragma solidity ^0.4.10;\r\n\r\ncontract carhistory {\r\n\r\nstruct CarHistoryStruct {\r\n  uint mileage;\r\n  bytes32 part1;\r\n  bytes32 part2;\r\n  bytes32 part3;\r\n  address sender;\r\n}\r\n\r\nmapping (bytes32 => CarHistoryStruct) public carHistoryStructs;\r\n\r\nbytes32[] carRegNos;\r\n\r\nfunction getCarRegNoArray() constant returns (bytes32[]) {\r\n  return carRegNos;\r\n}\r\n\r\nfunction setCarHistoryLog (bytes32 carRegNo, uint mileage, bytes32 part1, bytes32 part2, bytes32 part3) returns (bool success) {\r\n  carHistoryStructs[carRegNo].mileage = mileage;\r\n  carHistoryStructs[carRegNo].part1 = part1;\r\n  carHistoryStructs[carRegNo].part2 = part2;\r\n  carHistoryStructs[carRegNo].part3 = part3;\r\n  carHistoryStructs[carRegNo].sender = msg.sender;\r\n  carRegNos.push(carRegNo);\r\n  return true;\r\n}\r\n\r\nfunction getCarHistoryLog(bytes32 carRegNo) public constant returns (uint, bytes32, bytes32, bytes32, address) {\r\n  return (carHistoryStructs[carRegNo].mileage, carHistoryStructs[carRegNo].part1, \r\n    carHistoryStructs[carRegNo].part2, carHistoryStructs[carRegNo].part3, carHistoryStructs[carRegNo].sender);\r\n}\r\n\r\n}\r\n",
  "sourcePath": "P:\\rajeev\\Ideas\\carhistory\\contracts\\carhistory.sol",
  "compiler": {
    "name": "solc",
    "version": "0.4.24+commit.e67f0147.Emscripten.clang"
  },
  "schemaVersion": "2.0.1",
  "updatedAt": "2018-09-18T13:13:48.283Z"
}