{
  "contractName": "carhistory",
  "abi": [
    {
      "constant": false,
      "inputs": [
        {
          "name": "carRegNo",
          "type": "bytes32"
        },
        {
          "name": "mileage",
          "type": "uint256"
        },
        {
          "name": "part1",
          "type": "bytes32"
        },
        {
          "name": "part2",
          "type": "bytes32"
        },
        {
          "name": "part3",
          "type": "bytes32"
        }
      ],
      "name": "setCarHistoryLog",
      "outputs": [
        {
          "name": "success",
          "type": "bool"
        }
      ],
      "payable": false,
      "stateMutability": "nonpayable",
      "type": "function"
    },
    {
      "constant": true,
      "inputs": [
        {
          "name": "carRegNo",
          "type": "bytes32"
        },
        {
          "name": "part1",
          "type": "bytes32"
        },
        {
          "name": "part2",
          "type": "bytes32"
        },
        {
          "name": "part3",
          "type": "bytes32"
        }
      ],
      "name": "getCarRegNoArray",
      "outputs": [
        {
          "name": "",
          "type": "bytes32[]"
        },
        {
          "name": "",
          "type": "address"
        }
      ],
      "payable": false,
      "stateMutability": "view",
      "type": "function"
    },
    {
      "constant": true,
      "inputs": [
        {
          "name": "carRegNo",
          "type": "bytes32"
        }
      ],
      "name": "getCarHistoryLog",
      "outputs": [
        {
          "name": "",
          "type": "uint256",
          "components": [
            {
              "name": "mileage",
              "type": "uint256"
            },
            {
              "name": "part1",
              "type": "bytes32"
            },
            {
              "name": "part2",
              "type": "bytes32"
            },
            {
              "name": "part3",
              "type": "bytes32"
            },
            {
              "name": "sender",
              "type": "address"
            }
          ]
        },
        {
          "name": "",
          "type": "bytes32"
        },
        {
          "name": "",
          "type": "bytes32"
        },
        {
          "name": "",
          "type": "bytes32"
        },
        {
          "name": "",
          "type": "address"
        }
      ],
      "payable": false,
      "stateMutability": "view",
      "type": "function"
    },
    {
      "constant": true,
      "inputs": [
        {
          "name": "",
          "type": "bytes32"
        }
      ],
      "name": "carHistoryStructs",
      "outputs": [
        {
          "name": "mileage",
          "type": "uint256"
        },
        {
          "name": "part1",
          "type": "bytes32"
        },
        {
          "name": "part2",
          "type": "bytes32"
        },
        {
          "name": "part3",
          "type": "bytes32"
        },
        {
          "name": "sender",
          "type": "address"
        }
      ],
      "payable": false,
      "stateMutability": "view",
      "type": "function"
    },
    {
      "anonymous": false,
      "inputs": [
        {
          "indexed": false,
          "name": "carRegNo",
          "type": "bytes32"
        },
        {
          "indexed": false,
          "name": "mileage",
          "type": "uint256"
        },
        {
          "indexed": false,
          "name": "part1",
          "type": "bytes32"
        },
        {
          "indexed": false,
          "name": "part2",
          "type": "bytes32"
        },
        {
          "indexed": false,
          "name": "part3",
          "type": "bytes32"
        },
        {
          "indexed": false,
          "name": "sender",
          "type": "address"
        }
      ],
      "name": "FetchCarHistoryLog",
      "type": "event",
      "constant": true,
      "outputs": [
        {
          "name": "mileage",
          "type": "uint256"
        },
        {
          "name": "part1",
          "type": "bytes32"
        },
        {
          "name": "part2",
          "type": "bytes32"
        },
        {
          "name": "part3",
          "type": "bytes32"
        },
        {
          "name": "sender",
          "type": "address"
        }
      ],
      "payable": false,
      "stateMutability": "view"
    },
    {
      "anonymous": false,
      "inputs": [
        {
          "indexed": false,
          "name": "carRegNo",
          "type": "bytes32"
        }
      ],
      "name": "FetchCarHistoryLog",
      "type": "event"
    }
  ],
  "bytecode": "0x6060604052341561000f57600080fd5b6105d98061001e6000396000f300606060405260043610610062576000357c0100000000000000000000000000000000000000000000000000000000900463ffffffff168063208541c11461006757806350bf4d30146100d6578063be4f824a14610140578063e1f637f3146101db575b600080fd5b341561007257600080fd5b6100bc600480803560001916906020019091908035906020019091908035600019169060200190919080356000191690602001909190803560001916906020019091905050610276565b604051808215151515815260200191505060405180910390f35b34156100e157600080fd5b6100e96103a4565b6040518080602001828103825283818151815260200191508051906020019060200280838360005b8381101561012c578082015181840152602081019050610111565b505050509050019250505060405180910390f35b341561014b57600080fd5b610165600480803560001916906020019091905050610406565b604051808681526020018560001916600019168152602001846000191660001916815260200183600019166000191681526020018273ffffffffffffffffffffffffffffffffffffffff1673ffffffffffffffffffffffffffffffffffffffff1681526020019550505050505060405180910390f35b34156101e657600080fd5b6102006004808035600019169060200190919050506104f2565b604051808681526020018560001916600019168152602001846000191660001916815260200183600019166000191681526020018273ffffffffffffffffffffffffffffffffffffffff1673ffffffffffffffffffffffffffffffffffffffff1681526020019550505050505060405180910390f35b60008460008088600019166000191681526020019081526020016000206000018190555083600080886000191660001916815260200190815260200160002060010181600019169055508260008088600019166000191681526020019081526020016000206002018160001916905550816000808860001916600019168152602001908152602001600020600301816000191690555033600080886000191660001916815260200190815260200160002060040160006101000a81548173ffffffffffffffffffffffffffffffffffffffff021916908373ffffffffffffffffffffffffffffffffffffffff1602179055506001805480600101828161037c9190610548565b9160005260206000209001600088909190915090600019169055506001905095945050505050565b6103ac610574565b60018054806020026020016040519081016040528092919081815260200182805480156103fc57602002820191906000526020600020905b815460001916815260200190600101908083116103e4575b5050505050905090565b6000806000806000806000806000806000808c600019166000191681526020019081526020016000206000015494506000808c600019166000191681526020019081526020016000206001015493506000808c600019166000191681526020019081526020016000206002015492506000808c600019166000191681526020019081526020016000206003015491506000808c6000191660001916815260200190815260200160002060040160009054906101000a900473ffffffffffffffffffffffffffffffffffffffff169050848484848499509950995099509950505050505091939590929450565b60006020528060005260406000206000915090508060000154908060010154908060020154908060030154908060040160009054906101000a900473ffffffffffffffffffffffffffffffffffffffff16905085565b81548183558181151161056f5781836000526020600020918201910161056e9190610588565b5b505050565b602060405190810160405280600081525090565b6105aa91905b808211156105a657600081600090555060010161058e565b5090565b905600a165627a7a72305820b3e4b7a74f9b532a82bf7f0946ef94db1a82ffdd6eef95d0bd5d2f336ee7c1b70029",
  "source": "pragma solidity ^0.4.4;\r\n\r\ncontract carhistory {\r\n\r\nstruct CarHistoryStruct {\r\n  uint mileage;\r\n  bytes32 part1;\r\n  bytes32 part2;\r\n  bytes32 part3;\r\n  address sender;\r\n}\r\n\r\nmapping (bytes32 => CarHistoryStruct) public carHistoryStructs;\r\n\r\nbytes32[] carRegNos;\r\n\r\nfunction getCarRegNoArray() constant returns (bytes32[]) {\r\n  return carRegNos;\r\n}\r\n\r\nfunction setCarHistoryLog (bytes32 carRegNo, uint mileage, bytes32 part1, bytes32 part2, bytes32 part3) returns (bool success) {\r\n  carHistoryStructs[carRegNo].mileage = mileage;\r\n  carHistoryStructs[carRegNo].part1 = part1;\r\n  carHistoryStructs[carRegNo].part2 = part2;\r\n  carHistoryStructs[carRegNo].part3 = part3;\r\n  carHistoryStructs[carRegNo].sender = msg.sender;\r\n  carRegNos.push(carRegNo);\r\n  return true;\r\n}\r\n\r\nfunction getCarHistoryLog(bytes32 carRegNo) public constant returns (uint, bytes32, bytes32, bytes32, address) {\r\n  var mileage = carHistoryStructs[carRegNo].mileage;\r\n  var part1 = carHistoryStructs[carRegNo].part1;\r\n  var part2 = carHistoryStructs[carRegNo].part2;\r\n  var part3 = carHistoryStructs[carRegNo].part3;\r\n  var sender = carHistoryStructs[carRegNo].sender;\r\n  return (mileage, part1, part2, part3, sender);\r\n}\r\n\r\n}\r\n",
  "sourcePath": "P:\\rajeev\\Ideas\\carhistory\\contracts\\carhistory.sol",
  "compiler": {
    "name": "solc",
    "version": "0.4.18+commit.9cf6e910.Emscripten.clang"
  },
  "schemaVersion": "1.0.1",
  "updatedAt": "2017-12-15T12:19:17.437Z"
}